:100435003031323334353637383941424344454615
:1003D3001208000000000000000000000000000000
:0403E3000000000016
:0703AA001203E87F017E0051
:1003B1007DC87C00AB07AA06D3EB9400EA94004009
:1003C10007EB1B70F31A80F0ED1D70011CED4C70F2
:0103D100E348
:0103D2002208
:10042400C2A4D2A57580FFD2A6E58020E7FBC2A6B0
:0104340022A5
:1003E800120424C2A4C2A58F801203ADD2A61203A0
:0403F800B1C2A622C6
:1003FC00120424D2A4C2A58F801203ADD2A612037C
:04040C00B1C2A622B1
:100347007F287E001203B1D2A17F011203B1C2A39D
:100357001203B1D2A37F301203E87F141203E87FA0
:10036700801203E87F0C1203E87F011203E87F6421
:050377007E000203B14D
:10037C007F147E001203B1D2A17F011203B1C2A37C
:10038C001203B1D2A37F361203AA7F3E1203AA7FB7
:0E039C00801203AA1203E87F017E000203B163
:10030E00752880900000AF82EF2480FF1203E87FF3
:10031E00801203E8E4F529F52AE4FF1203FC052A0E
:10032E00E52A70020529C39420E529940040EAA32A
:08033E00E5826420458370CEC6
:010346002294
:1000030075B0FFE4F522F523F582F583F524F52594
:10001300E582458360030200C275B00FE5B0640F4B
:10002300603D7F057E001203B1E5B0640F6030AF21
:10003300B0EF24F9602324FC601724FE600B1470D6
:100043001E75220075230180167522007523028018
:100053000E7522007523038006752200752304752F
:10006300B0F0E5B064F060377F057E001203B1E5C0
:10007300B064F0602AAFB0EF2490601B24C060121C
:1000830024E0600924F07012900001800D900002BA
:1000930080089000038003900004E5B0B4F0FBE512
:1000A3002324FFFFE52234FFFEEF7802C333CE3370
:1000B300CED8F92582F525EE3583F524020013E524
:1000C3002524FFFFE52434FF8F82F583C3E5829463
:1000D3000AE58394005007EF2430FF1203FCAE833C
:0200E300AF82EA
:0100E50022F8
:060445001203470200E66D
:10019F00752200EF540FF523EEC4F854F0C868F53C
:1001AF0024EFC4540F48F525AD27AC26AF23AE225C
:1001BF001204180527E52770020526C3E5259410BC
:1001CF00E5249400500B1204100527E52770020553
:1001DF0026D3E525940FE52494004043752200E5CE
:1001EF0025540FF523AD27AC26FFAE2212041805B8
:1001FF0027E52770020526E524C4F854F0C868F5F2
:10020F0024E525C4540F48F525C39410E524940024
:10021F0050BF1204100527E52770B6052680B2AE31
:03022F0026AF27D0
:0102320022A9
:08041000AD27AC26AF25AE2498
:0C041800ED25E02408F8A60608A607223F
:1000E6001200038E1A8F1BE48F218E20F51FF51E3A
:1000F600C3E51B940AE51A9400503F1200038E1ABA
:100106008F1BE51B640A451A60E6E47F0AFEFDFCC8
:10011600AB21AA20A91FA81E1202BFA804A905AADE
:1001260006AB07E4FCFDEB251BF521EA351AF520A5
:10013600ED39F51FEC38F51E80B6E51B640A451A45
:100146007049AE20AF2112019F8F828E837F3D12B0
:1001560003FC7F301203FC7F781203FC85831C8529
:10016600821DE51D451C6023E51D25E02406F808D3
:10017600E690043593FF1203FCE51D151D70E3158B
:100186001C80DFE51B640B451A60091200038E1AFA
:090196008F1B80EF7F010203E8DA
:03000000020233C6
:0C023300787FE4F6D8FD75812A02027A7B
:1002BF00E88FF0A4CC8BF0A42CFCE98EF0A42CFCDE
:1002CF008AF0EDA42CFCEA8EF0A4CDA8F08BF0A45C
:1002DF002DCC3825F0FDE98FF0A42CCD35F0FCEBBB
:1002EF008EF0A4FEA9F0EB8FF0A4CFC5F02ECD3980
:0F02FF00FEE43CFCEAA42DCE35F0FDE43CFC22ED
:10023F00020445E493A3F8E493A34003F68001F28C
:10024F0008DFF48029E493A3F85407240CC8C333C0
:10025F00C4540F4420C8834004F456800146F6DF8F
:10026F00E4800B01020408102040809003D3E47E49
:10027F00019360BCA3FF543F30E509541FFEE49384
:10028F00A360010ECF54C025E060A840B8E493A34B
:10029F00FAE493A3F8E493A3C8C582C8CAC583CA76
:1002AF00F0A3C8C582C8CAC583CADFE9DEE780BE2E
:0103E7000015
:00000001FF
