:100C2300100A0000000000000000000000000000A7
:020C33000000BF
:0C0BDA00120BE6D2A17F01120BE6C2A3B1
:100BE600E4FEEEC39F5009E4FD0DBDD2FC0E80F27B
:010BF60022DC
:100C3600C2A4D2A57580FFD2A6E58020E7FBC2A696
:010C4600228B
:100BF700120C36C2A4C2A58F807F01120BE6D2A6C3
:060C0700120BE6C2A6225A
:100C0D00120C36D2A4C2A58F807F01120BE6D2A69C
:060C1D00120BE6C2A62244
:100B92007F28120BDAD2A37F30120BF77F14120BCD
:100BA200F77F80120BF77F0C120BF77F01120BF706
:050BB2007F64020BE668
:100BB7007F14120BDAD2A37F36120BF77F01120BC9
:100BC700E67F80120BF77F01120BE6120BF77F010E
:030BD700020BE628
:100B3700752680E4FBFAEB2480FF120BF77F801207
:100B47000BF7900000E4FF120C0DA3E5826420452B
:0E0B57008370F20BBB00010AEB64204A70D8D9
:010B6500226D
:1009E200120B92120C47751E00751F05120A65E460
:1009F200FCFDE51D2FF51DE51C3EF51CED351BF537
:100A02001BEC351AF51AE51F151F7002151ED3E5EA
:100A12001F9400E51E940050D3AF1DAE1CAD1BAC5D
:100A22001AE47B05FAF9F81208918F1D8E1C8D1BB2
:100A32008C1AD28E120B66E508B402F8E4F508129D
:100A42000A65E4FCFDC3EF951DFFEE951CFEED95D6
:100A52001BFDEC951AFC120AE5120B66E4FFFEFD83
:030A6200FC80D144
:100A6500D29300C29400E4F523F522F521F5202068
:100A750093FDE4FBFAAF23AE22AD21AC2078011241
:100A850009438F238E228D218C20D29400C294306D
:100A95009311EF2401F523E43EF522E43DF521E42D
:100AA5003CF5200BBB00010AEB64184A70C7D294D1
:100AB50000C294E52324FFFFE52234FFFEE521343F
:100AC500FFFDE52034FFFC1209238F238E228D21A3
:0F0AD5008C2078081209308F238E228D218C20DF
:010AE40022EF
:040AE5008E208F21AF
:100AE900E4F524F525FF7E10780AE4F608DEFCD348
:100AF900E5219400E52094004033AE20AF217C002D
:100B09007D0A1208008C228D23AD25AC24AF23AEBB
:100B190022120C550525E52570020524AE20AF21CA
:0D0B29007C007D0A1208008E208F2180C202
:010B3600229C
:0C0C5500ED25E0240AF8A60608A60722F8
:0E0C4700438910758D3C758BB0D2AFD2AB22B5
:060B66007D047C007F808D
:100B6C00AB05AA04120BF7D3EB9400EA94004015E2
:100B7C00EB25E02408F808E62430FF120C0DEB1BE3
:060B8C0070E51A80E22270
:03001B00020C6173
:0B0C6100C28F758D3C758BB00508320A
:030000000209569C
:0C095600787FE4F6D8FD75812602099D2B
:10080000BC000BBE0029EF8DF084FFADF022E4CCDC
:10081000F875F008EF2FFFEE33FEEC33FCEE9DECA5
:10082000984005FCEE9DFE0FD5F0E9E4CEFD22EDEB
:10083000F8F5F0EE8420D21CFEADF075F008EF2F35
:10084000FFED33FD4007985006D5F0F222C398FD26
:050850000FD5F0EA22C3
:1008550075F008758200EF2FFFEE33FECD33CDCC5A
:1008650033CCC58233C5829BED9AEC99E5829840DD
:100875000CF582EE9BFEED9AFDEC99FC0FD5F0D6BA
:10088500E4CEFBE4CDFAE4CCF9A88222B800C1B9E4
:100895000059BA002DEC8BF084CFCECDFCE5F0CB22
:1008A500F97818EF2FFFEE33FEED33FDEC33FCEB5B
:1008B50033FB10D703994004EB99FB0FD8E5E4F916
:1008C500FA227818EF2FFFEE33FEED33FDEC33FC03
:1008D500C933C910D7059BE99A4007EC9BFCE99AF7
:1008E500F90FD8E0E4C9FAE4CCFB2275F010EF2F3C
:1008F500FFEE33FEED33FDCC33CCC833C810D7073C
:100905009BEC9AE899400AED9BFDEC9AFCE899F876
:0E0915000FD5F0DAE4CDFBE4CCFAE4C8F92209
:0D092300CFF4CFCEF4CECDF4CDCCF4CC2269
:10093000E8600FECC313FCED13FDEE13FEEF13FFA5
:03094000D8F122C9
:10094300E8600FEFC333FFEE33FEED33FDEC33FC12
:03095300D8F122B6
:100962000209E2E493A3F8E493A34003F68001F2C0
:1009720008DFF48029E493A3F85407240CC8C33396
:10098200C4540F4420C8834004F456800146F6DF65
:10099200E4800B0102040810204080900C23E47EC6
:1009A200019360BCA3FF543F30E509541FFEE4935A
:1009B200A360010ECF54C025E060A840B8E493A321
:1009C200FAE493A3F8E493A3C8C582C8CAC583CA4C
:1009D200F0A3C8C582C8CAC583CADFE9DEE780BE04
:010C350000BE
:00000001FF
